:020000040800F2
:10000000700D0020ED010008C12A0008591D0008EC
:100010005D290008091100081D4A000800000000C1
:10002000000000000000000000000000C1360008D1
:100030005F1500080000000075310008B944000891
:10004000070200080702000807020008070200086C
:10005000070200080702000807020008070200085C
:10006000070200080702000807020008070200084C
:10007000070200080702000807020008070200083C
:10008000070200080702000807020008070200082C
:10009000070200080702000807020008070200081C
:1000A000070200080702000807020008070200080C
:1000B0001D450008070200080702000807020008A3
:1000C00007020008070200080702000807020008EC
:1000D000070200080D480008070200080702000890
:1000E00007020008070200080702000800F002F8F3
:1000F00000F06CF80AA090E8000C82448344AAF156
:100100000107DA4501D100F061F8AFF2090EBAE853
:100110000F0013F0010F18BFFB1A43F0010318473B
:1001200060C1000080C100000A444FF0000C10F8CC
:10013000013B13F0070408BF10F8014B1D1108BF65
:1001400010F8015B641E05D010F8016B641E01F805
:10015000016BF9D113F0080F1EBF10F8014BAD1C55
:100160000C1B09D16D1E58BF01F801CBFAD505E073
:1001700014F8016B01F8016B6D1EF9D59142D6D3CD
:10018000704700000023002400250026103A28BFF5
:1001900078C1FBD8520728BF30C148BF0B607047F9
:1001A000642900F0E380002070471FB59DE803003C
:1001B00000F068FB00F05AFC04000020002107F06A
:1001C0004BFB401C60601FBD10B510BD00F0C3FCB0
:1001D0001146FFF7EAFF04F04DFE00F0EFFC03B418
:1001E000FFF7F2FF03BC00F05FFD00000948804705
:1001F00009480047FEE7FEE7FEE7FEE7FEE7FEE709
:10020000FEE7FEE7FEE7FEE704480549054A064B20
:1002100070470000BD440008ED0000087007002092
:10022000700D0020700900207009002070B506468E
:1002300000F008FB056806F10B0020F00704B4424B
:100240009CBF002070BD2B466A68BAB11068A042FE
:1002500010D304F1080188423CBF5068586007D3AE
:100260005168101941601168091B016058601460E1
:10027000101D70BD13465268002AE7D1214628465A
:1002800000F0ECFA0028DED170BD70B50446051F01
:1002900000F0D8FA0068002C14BF446870BD002C30
:1002A00018BFAC423CBF20466468F8D301680A1806
:1002B000AA4218BF456003D12A680546114401606F
:1002C00028684119A1421CBF6C6070BD61686960FB
:1002D00021680844286070BD10B5044600F0AAFAF1
:1002E0000068005DC00602D504F1200010BD204664
:1002F00010BD00000FB41CB5074B06AA7B4469462D
:100300000090059800F05DFB0020694600F06CFB52
:100310001CBC5DF814FB0000E906000070B5044643
:1003200085690068C10601D5302600E02026C00797
:1003300007D070BDD4E9012130469047206A401CA7
:1003400020626D1EF6D570BD70B5044685690078D3
:10035000C00707D170BDD4E9012120209047206A51
:10036000401C20626D1EF6D570BD00002DE9F041E5
:100370000646002410687529314616A510D0AFF343
:100380000080002802DA404213A507E031688A079E
:1003900001D512A502E0490704D511A5012401E009
:1003A000AFF3008000210A2206F1240709E0B0FB28
:1003B000F2FCB0FBF2F302FB1C003030785418461C
:1003C000491C0028F3D123462A463046BDE8F041B7
:1003D00000F099BA000000002D0000002B00000082
:1003E000200000002DE9F05F894604464FF0000A26
:1003F000DFF824B1FB44C0F820A02046E16888471C
:1004000000287DD0252806D0D4E901219047206A14
:10041000401C2062F1E700255F462046E1688847DE
:100420002028064607DB312E05D2B81910F8200C1B
:1004300008B10543F1E7A80701D525F00405C4F884
:100440001CA00027C4F818A02A2E09D0304604F0BA
:10045000E1FB38B304EB8708303EC8F8186019E0B8
:1004600059F8041B204604EB87029161E168884734
:10047000012F064618D1E069002820DA25F0200572
:100480001DE0D8F8180000EB800006EB4000303883
:10049000C8F818002046E1688847064604F0BAFB11
:1004A0000028EED1012F0AD02E2E08D12046E16877
:1004B00088477F1C0646022F45F02005C4DBA06953
:1004C000002803DA404245F00105A061E80701D0A9
:1004D00025F01005A6B1A6F14100192802D8203652
:1004E00045F400654A463146204625604D46FFF7F3
:1004F00057FE60B1012807D0ED1D25F0070000E090
:1005000007E000F1080978E705F1040975E73046CE
:100510007AE7206ABDE8F09F57BC000070B5064638
:1005200000F094F90468054630460A22002100F0E4
:1005300060FA2C6070BD401ECAB210F8011F8A42DA
:1005400002D00029F9D10020704710B5431E13F8DE
:10055000014F002CFBD105E011F8014B002C03F8F2
:10056000014B03D0521EF7D20021197010BD30B5D7
:1005700005460B462A4613F8014B12F8010B08B149
:10058000A042F8D01CB1002802D06D1CF1E728462B
:1005900030BD40EA0103024630B59B0710D14FF051
:1005A000013400E008C208C91D1B9D4315EAC41FA1
:1005B000F8D013F0FF0102F8011B0DD01B0AF8E779
:1005C00011F8013B002B02F8013B05D011F8013B6B
:1005D000002B02F8013BF3D130BD10B5431C02E003
:1005E00010F8011B71B18107FAD14FF0013202C836
:1005F0008C1A8C4314EAC211F9D0C01A0A0603D02F
:10060000C01E10BDC01A10BD0A0401D0801E10BD4E
:100610000902FCD0401E10BD40EA010370B59B07E3
:100620002ED14FF00136042A2AD308C810C99D1BC9
:100630009D43121F15EAC61517D0D8B2E1B2401A71
:1006400050EA056110D198B2A1B2401A50EA0541B2
:100650000AD123F07F4024F07F41401A50EA05215F
:1006600002D1180EA0EB146070BDA342DBD018BA03
:1006700021BA884201D9012070BD4FF0FF3070BD12
:100680000AB9002070BD10F8013B11F8014B63B1AD
:10069000A3420AD1521E08D010F8013B11F8014BB9
:1006A0001BB1A34201D1521EEDD1181B70BD032A0C
:1006B00040F2308010F0030C00F0158011F8013B7F
:1006C000BCF1020F624498BF11F801CB00F8013B66
:1006D00038BF11F8013BA2F1040298BF00F801CB2A
:1006E00038BF00F8013B11F0030300F02580083A01
:1006F000C0F0088051F8043B083A51F804CBA0E858
:100700000810F5E7121D5CBF51F8043B40F8043BAC
:10071000AFF30080D20724BF11F8013B11F801CBE1
:1007200048BF11F8012B24BF00F8013B00F801CBB2
:1007300048BF00F8012B704710B5203AC0F00B807D
:10074000B1E81850203AA0E81850B1E81850A0E8D5
:100750001850BFF4F5AF5FEA027C24BFB1E818502F
:10076000A0E8185044BF18C918C0BDE810405FEA9F
:10077000827C24BF51F8043B40F8043B08BF70471B
:10078000D20728BF31F8023B48BF11F8012B28BF20
:1007900020F8023B48BF00F8012B70474FF00002E1
:1007A0000429C0F0128010F0030C00F01B80CCF183
:1007B000040CBCF1020F18BF00F8012BA8BF20F8F1
:1007C000022BA1EB0C0100F00DB85FEAC17C24BF45
:1007D00000F8012B00F8012B48BF00F8012B7047EF
:1007E0004FF0000200B5134694469646203922BFCA
:1007F000A0E80C50A0E80C50B1F12001BFF4F7AF15
:10080000090728BFA0E80C5048BF0CC05DF804EBF6
:10081000890028BF40F8042B08BF704748BF20F864
:10082000022B11F0804F18BF00F8012B7047704762
:100830007047704710B500F019F9001D10BD00BFDA
:1008400019700000004870471407002000487047E6
:100850000C070020704770477047704738B5044652
:100860000A4600206946AFF30080002808BF38BD63
:1008700002460099204600F0FDF8012038BD012015
:1008800000F061B9F8B5AFF30080054600200C46D2
:10089000102000BF0646A819A0420DD9324669466D
:1008A0000020AFF30080070008BF00F04CF900986B
:1008B000A04218BF0546C419FFF7C4FF05600746EC
:1008C000F01D20F007004619284600F00AF8B4424F
:1008D00008BFF8BDA21B31463868BDE8F84000F0FB
:1008E000C9B800210160C0E90110704710207047AD
:1008F00010B5FFF7ABFF006810BD10B50446FFF759
:10090000A5FF046010BD2DE9F0470D4699469246BB
:10091000044600F124080168880604D5E06921F046
:100920001001216000E00120A84201DD471B00E02A
:100930000027A1697A1902EB0900081AA061207842
:10094000C00602D42046FFF7E9FC002608E0D4E9FF
:1009500001211AF806009047206A401C761C20628C
:100960004E45F4DB2078C0060AD52046FFF7D6FCBA
:1009700006E0D4E9012130209047206A401C206223
:10098000381EA7F10107F4DC07E0D4E9012118F8CB
:1009900005009047206A401C2062281EA5F1010531
:1009A000F3DC2046FFF7D0FC2078000602D50220B9
:1009B000BDE8F0870120FBE701694A1C0261087865
:1009C000704700B58FB0CDE901310021059105498F
:1009D0007944CDE9031011466846FFF703FD0FB0D7
:1009E00000BD0000E5FFFFFF0A6802F8010B0A6086
:1009F00070472DE9F04791460F4680460446002691
:100A000014F8015B2DB1FFF715FF0068405DC007CA
:100A1000F6D12B2D02D02D2D18D0641E4A46394612
:100A2000204600F041F827B13968A14201D1C7F84A
:100A300000804FF0020471050BD54042002803DD11
:100A4000FFF704FF0460A007BDE8F08746F4806666
:100A5000E4E70028F8DAFFF7F9FE04606FF00040E1
:100A6000F2E70000004870470C070020004870477C
:100A70002C070020034640688C46002818BF884297
:100A80003CBF03464068F8D318681844884207D032
:100A90000CF1030020F00700001D411A521A014614
:100AA000081D0A60FFF7F1BB2DE9F05F824615468D
:100AB0008B4600270AF10104B9460078302801D09E
:100AC0009DB113E014F8010B0127782803D05828B2
:100AD00001D045B10AE00DB1102D07D1002714F85F
:100AE000010B102502E0082500E00A250026B0468B
:100AF0000EE005FB080005FB06F101271FFA80F850
:100B000001EB1046B6F5803F00D3B94614F8010B4F
:100B1000294600F045F80028EBDABBF1000F05D0BC
:100B20000FB1641E00E05446CBF80040B9F1000F4D
:100B300006D0FFF78BFE02210160C81EBDE8F09FC2
:100B400048EA0640FAE710B500F046F8BDE8104064
:100B500000F03DB870477546FFF784FFAE460500CC
:100B60006946534620F00700854618B020B5FFF7C8
:100B70004BFBBDE820404FF000064FF000074FF060
:100B800000084FF0000B21F00701AC46ACE8C009AB
:100B9000ACE8C009ACE8C009ACE8C0098D467047B4
:100BA0003A2800D2303820F02002412A01D3A2F1A5
:100BB0003700884201D34FF0FF30704710B504462C
:100BC000AFF300802046BDE81040FFF708BB0028C7
:100BD00001D000F069B8704710B5012805D0002198
:100BE00003A000F067F8012010BD09A1F8E700009C
:100BF00053494752544D454D3A204F7574206F6606
:100C00002068656170206D656D6F7279000000006D
:100C10003A2048656170206D656D6F727920636F51
:100C200072727570746564004FF0013C50F8042BCB
:100C300051F8043B9A4221D1A2EB0C03934313EAEF
:100C4000CC1317D150F8042B51F8043B9A4215D11C
:100C5000A2EB0C03934313EACC130BD150F8042BF3
:100C600051F8043B9A4209D1A2EB0C03934313EAD7
:100C7000CC13DBD04FF00000704700BFD01A01BA90
:100C8000B1FA81F101F0180122FA01F0CB40C1F173
:100C90002001DBB2C0B2C01A2CFA01F3D11A914381
:100CA00011EAC311E6D1704701491820ABBEFEE737
:100CB0002600020070B505460C460A2000E06D1CB7
:100CC00000F011F835B128780028F8D102E0641C52
:100CD00000F009F814B120780028F8D1BDE8704080
:100CE0000A20AFF3008008B569468DF800000320A4
:100CF000ABBE08BD21B1826842F00102826003E010
:100D0000826822F0010282607047014600208A68F2
:100D100002F004020AB1012000E000207047014601
:100D2000C86C80B270470246002013680B400BB1BC
:100D3000012000E000207047014600208A6802F090
:100D400008020AB1012000E00020704730B50246D9
:100D50000020002350680F4C20400D790C6844EAB5
:100D600005242043506090680B4C2040D1E9025488
:100D70002C434D7944EA450420439060D06A20F426
:100D800070000C7C641EE4B2234340EA0350D0623E
:100D900030BD0000FFFEF0FFFDF7F1FFF0B50446A7
:100DA0000D4600200021092D11DDE068A5F10A069D
:100DB00006EB4607072606FA07F18843A5F10A065F
:100DC00006EB460603FA06F10843E0600CE02069F2
:100DD00005EB4507072606FA07F1884305EB4506AC
:100DE00003FA06F108432061072A0FDA606B561EEA
:100DF00006EB86071F2606FA07F18843561E06EB08
:100E0000860605FA06F10843606322E00D2A0FDA30
:100E1000206BD61F06EB86071F2606FA07F18843CC
:100E2000D61F06EB860605FA06F10843206310E09C
:100E3000E06AA2F10D0606EB86071F2606FA07F107
:100E40008843A2F10D0606EB860605FA06F1084373
:100E5000E062F0BD816841F008018160704721B116
:100E6000826842F4A002826003E0826822F4A00259
:100E700082607047816841F0040181607047000022
:100E800010B504460523012221460948FFF786FFD5
:100E900001210748FFF7E3FF00BF02210448FFF7E5
:100EA00042FF0028F9D00248FFF739FF10BD0000CB
:100EB0000024014000B587B00121480202F078F912
:100EC0000121042002F074F94FF4004002F054F9BB
:100ED00000208DF81B000F20ADF8180003208DF8BE
:100EE0001A0006A9164800F02FFD0020019004907A
:100EF0004FF46020039000208DF809008DF8080061
:100F000001208DF8140001A90E48FFF71FFF0121F1
:100F10000C48FFF7EFFE0B48FFF79CFF00BF0948A6
:100F2000FFF70AFF0128FAD00648FFF7A3FF00BF2A
:100F30000448FFF7EAFE0128FAD007B000BD000020
:100F4000000801400024014010B500240020FFF7F4
:100F500097FF2C4908800120FFF792FF2A4908805B
:100F600028480088B0F5616F0EDD322000F0F8FAF5
:100F700000BF0020FFF784FFB0F5616FF9DC14209B
:100F800000F0EEFA01243AE01E480088B0F5C87F70
:100F90000EDA322000F0E4FA00BF0020FFF770FF05
:100FA000B0F5C87FF9DB142000F0DAFA022426E05D
:100FB00015480088B0F5616F0EDD322000F0D0FAE0
:100FC00000BF0120FFF75CFFB0F5616FF9DC142072
:100FD00000F0C6FA032412E00B480088B0F5C87F81
:100FE0000DDA322000F0BCFA00BF0120FFF748FF05
:100FF000B0F5C87FF9DB142000F0B2FA04242046D3
:1010000010BD0000140000201600002008B500F0FC
:10101000E3FE04F0EBFF03F07BF801F037F800F09B
:101020003DF8FFF747FF00F0E3FF1A480068009023
:10103000194804F0CEFF00F091FE00F009FB1648BD
:1010400005F043FA03E04FF4FA7000F089FA01F07A
:1010500093FD0028F7D10121684601F03DFF0E48BD
:1010600004F0B7FF00BF03F089FE0B4805F00DFA4E
:101070000028F8D1084805F028FA4FF47A7000F0FB
:101080006FFA054804F0A5FF03F080FB00F0E2FFD3
:1010900008BD0000B88B00087801002008B50121C8
:1010A000082002F085F810208DF803004002ADF80A
:1010B000000003208DF802006946024800F044FC5D
:1010C00008BD0000000C014010B54FF4005102486B
:1010D00000F0D9FC10BD0000000C014010B54FF429
:1010E0000051084800F0C4FC28B94FF400510548ED
:1010F00000F0C9FC04E04FF40051024800F0C1FCCC
:1011000010BD0000000C014000BFFEE710B586B026
:10111000A248007804287DD100241422A049684602
:10112000FFF70AFB9E4810380FC801F019FC24E1B4
:10113000FFF70AFF994908709A4804F04AFF984857
:1011400010380A220C214368964805F035F90D2025
:101150008023024601210090924805F0A0F89048B3
:1011600010381822032183688E4805F025F98C4831
:10117000103824220321C3688A4805F01DF98848E5
:101180001038302203210369864805F015F9844898
:1011900010383C2203214369824805F00DF902F022
:1011A0008DFD01228049814806F03AFB01228049E9
:1011B000804806F035FB02227F49804806F030FB6C
:1011C00001227F497F4806F02BFB7E480078009083
:1011D0007A4803787748027874480178714804F0B7
:1011E0001FFF704805F071F96C480078042814D18D
:1011F00075480078401C74490870694810380078B8
:10120000801E0978884239DC654810380078801ED5
:101210006D4900E0B4E0087030E0604800780328D1
:101220000BD169480078401E67490870084600786D
:10123000002823DC0020087020E0584800780228AD
:101240001CD1584804F0C5FE00205F4908700120F9
:10125000564908700E2057490870542057490870A5
:101260000D205849087014224D496846FFF764FA6A
:101270004B4810380FC801F04BFE7FE05248007811
:1012800030B1012821D002283CD0032874D156E087
:101290000120454908704C480078001B00EB4000D5
:1012A0000E2101EB8000424908703D4910398868E1
:1012B000FFF793F9401C00EB40004006000E3E494A
:1012C00008700D203E49087056E00120364908702C
:1012D0003D480078001B00EB40000E2101EB800030
:1012E000334908702E491039C868FFF776F9401C59
:1012F00000EB40004006000E2F4908700D203049D9
:10130000087039E00120284908702F480078001B38
:1013100000EB40000E2101EB8000254908702049B8
:1013200010390869FFF759F9401C00EB40004006EE
:10133000000E214908700D20214908701CE0012091
:101340001949087020480078001B00EB40000E216E
:1013500001EB800016490870114910394869FFF700
:101360003CF9401C00EB40004006000E124908709A
:101370000D201349087000BF00BFD9E600BF00BFB1
:1013800000200649087002F0C3FE00200F490880C3
:1013900001200F49087006B010BD00000F010020A9
:1013A0007C000020780100201401002010010020A2
:1013B000150100201101002016010020120100205B
:1013C000170100201301002018010020080100204F
:1013D0000E01002010B5002400F02AF804E0601C83
:1013E000C4B2012000F0C8F84FF480510F4800F05B
:1013F00036FB08B1642CF2DB642C01DB012010BD4C
:10140000002404E0601CC4B2012000F0B5F84FF4E1
:101410008051064800F023FB08B9642CF2DB642CF1
:1014200001DB0120EBE70020E9E70000000C0140B0
:1014300008B54FF48050ADF8000048208DF8030047
:101440006946024800F080FA08BD0000000C014027
:1014500008B54FF48050ADF8000010208DF803005F
:1014600003208DF802006946014800F06DFA08BDBE
:10147000000C014010B5002404E0601CC4B201203F
:1014800000F07AF84FF48051104800F0E8FA08B103
:10149000642CF2DB002404E0601CC4B2012000F0E4
:1014A0006BF84FF48051094800F0D9FA08B9642C60
:1014B000F2DB282000F060F84FF48051034800F080
:1014C000CEFA08B1012010BD0020FCE7000C01405D
:1014D00070B50024002506E06006040EFFF7CAFF81
:1014E0000443681CC5B2082DF6DB204670BD7CB5F0
:1014F00005460E4600F058F8FFF76CFF10BB0024BD
:1015000005E0FFF7E5FF0DF80400601CC4B2052CF0
:10151000F7DB9DF800009DF8011008449DF80210CB
:1015200008449DF8031008449DF8041088420AD12D
:101530009DF8000028709DF803009DF8021040EA15
:10154000012030800AE000208DF804008DF80300AF
:101550008DF802008DF801008DF800007CBD704709
:1015600000B5034603E04FF47A7000F005F8181E4A
:10157000A3F10103F7D100BD00EBC001C9004FF09A
:10158000E0225161002191610521116100BF4FF0FE
:10159000E021096901F480310029F8D004214FF0DD
:1015A000E02211617047000010B5FFF751FF4FF4C2
:1015B00080510B4800F067FA1E20FFF7DDFF4FF463
:1015C0008051074800F05DFA1420FFF7C9FF4FF47F
:1015D0008051034800F057FA1E20FFF7CDFF10BDE1
:1015E000000C014010B54FF480710348FFF7D6F8A6
:1015F00000200249088010BD0C0600202C010020AC
:1016000070B50546002400BF00F084F980B90DA133
:101610000E48FEF7ACFF044654B13A212046FEF7CF
:101620008AFF044614B1641C204670BD0020FCE70C
:101630000520FFF795FF681E85B2002DE4DC002031
:10164000F3E700004950442C000000000C06002085
:1016500008B50121042001F0ABFD10208DF8030036
:101660004002ADF8000003208DF8020069464848AA
:1016700000F06AF900224FF40051454800F005FAE5
:10168000FA20FFF76DFF01225103414800F0FDF9F8
:101690004FF4FA70FFF764FFFFF7A4FF3DA30A229F
:1016A00003213E4804F088FE03E04FF4FA70FFF790
:1016B00057FF3BA13BA000F0DFF80028F5D13748E9
:1016C00004F003FF354804F084FC38A30A22032108
:1016D000324804F071FE03E04FF4FA70FFF740FF68
:1016E0002FA135A000F0C8F80028F5D12B4804F050
:1016F000ECFE2A4804F06DFC33A30A22032127489C
:1017000004F05AFE03E04FF4FA70FFF729FF24A11A
:1017100031A000F0B1F80028F5D1204804F0D5FE42
:101720001E4804F056FC30A30A2203211B4804F093
:1017300043FE03E04FF4FA70FFF712FF2DA12FA034
:1017400000F09AF80028F5D1144804F0BEFE1348C2
:1017500004F03FFC31A30A220321104804F02CFEC0
:1017600003E04FF4FA70FFF7FBFE30A131A000F068
:1017700083F80028F5D1094804F0A7FE074804F0D3
:1017800028FC37A30A220321044804F015FE08BDF3
:1017900000100140312E2041540D0A007801002034
:1017A0004F4B000041540D0A00000000322E204330
:1017B000574D4F44450D0A0041542B43574D4F445C
:1017C000453D310D0A000000332E2041542B435774
:1017D000444843500D0A000041542B4357444843AA
:1017E000503D312C310D0A00342E2043574A4150D0
:1017F0000D0A0000474F54204950000041542B432C
:10180000574A41503D22456D6D222C2231323334EE
:101810003536373839307177220D0A00352E20439E
:10182000495053544152540D0A000000434F4E4E4C
:101830004543540041542B43495053544152543D65
:1018400022544350222C2262726F6B65722E656D9A
:1018500071782E696F222C313838330D0A00000060
:10186000362E204553503832363620496E69742062
:101870004F4B0D0A000000002DE9F04104460D46D3
:10188000C8262046FEF7A9FE87B23A4621460D48F3
:1018900003F01EF90FE000F03DF848B929460A4868
:1018A000FEF765FE20B1FFF79DFE0020BDE8F08148
:1018B0000A20FFF755FE301EA6F10101CEB2EAD193
:1018C0000120F3E7003801400C06002030B589B054
:1018D00004460D46FFF786FE2A4608A101A8FEF73A
:1018E00009FD0AA101A8FFF7C7FF20B92A46214632
:1018F000074803F0EDF809B030BD000041542B4318
:10190000495053454E443D25640D0A003E000000F9
:10191000003801400A48008808B90120704708488B
:10192000008808490988884203D1002004490880BA
:10193000F4E703480088034908800120EEE700002F
:101940002C0100202E0100202DE9F0410246002547
:101950000026002000230024002791F803C00CF08B
:101960000F0591F803C00CF0100CBCF1000F03D070
:1019700091F802C04CEA050591F800C0BCF1000FD7
:1019800031D0146800202BE04FF0010C0CFA00F36A
:10199000B1F800C00CEA03069E4220D183004FF04C
:1019A0000F0C0CFA03F7BC4305FA03FC4CEA0404E1
:1019B00091F803C0BCF1280F06D14FF0010C0CFACE
:1019C00000FCC2F814C00AE091F803C0BCF1480F53
:1019D00005D14FF0010C0CFA00FCC2F810C0401CFD
:1019E0000828D1D31460B1F800C0BCF1FF0F34DD7A
:1019F000546800202EE000F1080C4FF0010808FAAE
:101A00000CF3B1F800C00CEA03069E4221D183001A
:101A10004FF00F0C0CFA03F7BC4305FA03FC4CEA39
:101A2000040491F803C0BCF1280F05D100F1080CA3
:101A300008FA0CF8C2F8148091F803C0BCF1480F02
:101A400007D100F1080C4FF0010808FA0CF8C2F8B1
:101A50001080401C0828CED35460BDE8F0810246B7
:101A6000002093680B400BB1012000E0002070477C
:101A700002460020D3680B400BB1012000E000209B
:101A8000704741617047016170470AB1016100E030
:101A90004161704710B586B0A148007804287CD118
:101AA000002414229F496846FEF746FE9D481038E0
:101AB0000FC800F055FF23E1FFF746FA9849087078
:101AC000994804F086FA974810380A220C21436896
:101AD000954804F071FC0D208023024601210090FE
:101AE000914804F0DCFB8F481038182203218368EA
:101AF0008D4804F061FC8B48103824220321C36810
:101B0000894804F059FC87481038302203210369C2
:101B1000854804F051FC834810383C220321436976
:101B2000814804F049FC01228049814805F078FE93
:101B300001228049804805F073FE02227F498048D7
:101B400005F06EFE01227F497F4805F069FE7E4860
:101B5000007800907A4803787748027874480178D2
:101B6000714804F05DFA704804F0AFFC6C480078EE
:101B7000042813D175480078401C744908706948DE
:101B800010380078801E0978884238DC65481038A3
:101B90000078801E6D49087031E0B4E0604800783C
:101BA00003280BD169480078401E68490870084630
:101BB0000078002823DC0020087020E058480078D6
:101BC00002281CD1584804F004FA00205F4908702C
:101BD0000120574908700E20574908705420584971
:101BE00008700D205849087014224E496846FEF7C7
:101BF000A3FD4C4810380FC801F08AF981E0534822
:101C0000007830B1012823D002283ED0032876D1B5
:101C100058E00120454908704C480078001B00EB53
:101C200040000E2101EB8000424908703D49103907
:101C30008868FEF7D2FC401C00EB40004006000E16
:101C40003E4908700D203F49087001F0E3FE56E060
:101C50000120364908703D480078001B00EB400029
:101C60000E2101EB8000334908702E491039C868F5
:101C7000FEF7B3FC401C00EB40004006000E2F496D
:101C800008700D202F49087039E00120274908709D
:101C90002E480078001B00EB40000E2101EB800075
:101CA000244908701F4910390869FEF796FC401C4A
:101CB00000EB40004006000E204908700D2021492D
:101CC00008701CE001201949087020480078001BAA
:101CD00000EB40000E2101EB80001649087011490D
:101CE00010390869FEF779FC401C00EB4000400603
:101CF000000E124908700D201249087000BF00BF85
:101D0000DAE600BF00BF00200549087002F000FAC3
:101D100030200F49088000200E49087006B010BD21
:101D20000F01002034000020780100201401002061
:101D300010010020150100201101002016010020D3
:101D400012010020170100201301002018010020BB
:101D5000080100200E01002000BFFEE710B54FF47F
:101D6000A06000F0E7FE4FF4E13002F059FE03A35B
:101D70000A220121064804F01FFB10BD20486172B1
:101D8000647761726520696E6974204F4B0D0A009B
:101D90007801002070B502460024002500230020B1
:101DA000958A138B1B0445EA030626F07F4404EA58
:101DB00001068E4201D1012000E0002070BD21B15A
:101DC000028842F00102028004E002884FF6FE73AE
:101DD0001A4002807047000008B50121480501F053
:101DE000E7F90121082001F0E3F94020ADF80000F7
:101DF0001C208DF8030003208DF802006946084876
:101E0000FFF7A2FD8020ADF800001C208DF8030034
:101E100003208DF8020069460148FFF795FD08BDD3
:101E2000000C014021B1028842F48072028004E07B
:101E300002884FF6FF631A400280704721B1028882
:101E400042F40072028004E002884FF6FF531A4009
:101E5000028070470CB502460020002301930093D6
:101E600000920B0F019321F07F41019B1BB1009B5E
:101E70001433009303E0090C009B18330093009B7C
:101E80001B680B400BB1012000E000200CBD0000DE
:101E90002DE9F04385B004460D460026B1460427DF
:101EA000DFF8CC80A6884FF6C0700640684601F087
:101EB0008FF9DDF808802F48B8FBF0F01FFA80F9A1
:101EC00046EA0906A68020884FF6FE710840208069
:101ED00000262949286888420CD828684000B8FBA9
:101EE000F0F087B2042F00DA04273E4309F1010025
:101EF000208427E0E8884BF6FF71884206D12868E5
:101F000000EB4000B8FBF0F087B209E0286800EB76
:101F1000C00101EB0010B8FBF0F087B247F4804736
:101F2000C7F30B0008B947F0010747F40040064328
:101F30004FF4967009FB00F04FF47A7190FBF1F0CA
:101F4000401C2084A683208840F001002080268841
:101F50004FF6F5300640A888698908430643268075
:101F6000A88929890843208105B0BDE8F0830000D5
:101F700000127A0040420F00A086010012B141F029
:101F8000010102E04FF6FE731940018270470182A1
:101F90007047000010B5002402211448FFF75FFDD0
:101FA00068B91420FFF7DCFA00BF02210F48FFF7E1
:101FB00056FD0028F9D01420FFF7D2FA01244FF47F
:101FC00000610A48FFF74BFD70B91420FFF7C8FA0B
:101FD00000BF4FF400610548FFF741FD0028F8D02D
:101FE0001420FFF7BDFA0224204610BD000C01406A
:101FF00008B50121082001F0DBF848208DF8030026
:1020000040F60200ADF8000003208DF8020069469A
:102010000148FFF799FC08BD000C014010B52021D4
:102020000148FFF730FD10BD0008014010B5202128
:102030000148FFF726FD10BD0008014010B5202122
:102040000348FFF715FD08B9002010BD0120FCE78B
:102050000008014010B510210148FFF714FD10BD24
:102060000008014010B510210148FFF70AFD10BD1E
:102070000008014010B510210348FFF7F9FC08B92A
:10208000002010BD0120FCE70008014008B5012137
:10209000042001F08DF810208DF803003020ADF8F9
:1020A000000003208DF8020069460648FFF74CFC4B
:1020B00020210448FFF7E5FC10210248FFF7E1FC6E
:1020C00008BD00000008014010B50446207B01282F
:1020D00002D12068FEF7D9F8002020606060A0607F
:1020E000207310BD0246002301230DE002F07F00A3
:1020F0000870D2092AB1087840F080000870491CA5
:1021000001E0184670475B1C042BEFDD4FF0FF30F9
:10211000F8E770B504460E460025206898B90120FE
:1021200020733046FEF782F820602068E0B100207E
:102130006060A66003E00020216848556D1CA0681F
:10214000A842F8D810E00220207303E000202168A4
:1021500048556D1CA068A842F8D800206060A068AF
:10216000B04201D20020206070BD00002DE9FF4F79
:1021700083B082468B469146159C00250020029034
:102180000F2701904846FEF728FA0FFA80F8B9F1B8
:10219000000F03D1012007B0BDE8F08F08F1020065
:1021A000384487B2109808B145F00205129878B10A
:1021B00045F004051298FEF710FAC0B20290139889
:1021C000FEF70BFA01460298001D0844384487B216
:1021D000119820B1012804D0022808D104E000BFE2
:1021E00007E045F00C0504E045F0140501E002208D
:1021F000D1E700BF149808B145F02405BAF1000FEB
:1022000002D0BBF1000F01D10320C4E745F0C005A7
:102210005046FEF7E2F906465846FEF7DEF930442E
:10222000001D384487B239462046FFF772FF206808
:1022300008B90420AFE739462068FEF7AFFA10214D
:102240006268501C606020688154D4E90023D11872
:10225000781FFFF747FF00B201900198002804DAC9
:102260002046FFF731FF052095E761680198084493
:10227000606000216268501C606020688154042105
:102280006268501C6060206881544D216268501C57
:1022900060602068815451216268501C6060206831
:1022A000815454216268501C6060206881546268C7
:1022B000501C60602068815404216268501C60607A
:1022C000206881546168481C606020684554069805
:1022D000010A6268501C6060206881540698C1B28F
:1022E0006268501C606020688154C8F307216268EE
:1022F000501C6060206881546268501C60602068D7
:1023000000F80280D4E90012881842464946FEF7D8
:102310001CF960684044606005F00400B8B3002612
:10232000139808B938A013901298FEF756F986B2A0
:10233000310A6268501C6060206881546268501CD9
:10234000606020688654D4E90012881832461299D9
:10235000FEF7FBF86068304460601398FEF73DF9C3
:1023600086B2310A6268501C6060206881546268DD
:10237000501C606020688654D4E9001288183246E8
:102380001399FEF7E2F860683044606000BF05F022
:102390008000C8B15046FEF720F986B2310A626863
:1023A000501C6060206881546268501C6060206826
:1023B0008654D4E90012881832465146FEF7C5F813
:1023C00060683044606000BF05F04000C8B1584606
:1023D000FEF703F986B2310A6268501C606020681B
:1023E00081546268501C606020688654D4E90012F1
:1023F000881832465946FEF7A8F860683044606095
:1024000000BF0020C7E60000000000002DE9FF4FDC
:1024100083B0834617469946139C0025002600206A
:10242000029001908046BBF1000F03D1012007B05C
:10243000BDE8F08F00260AE00498805D232803D0D1
:102440000498805D2B2801D10220F0E7761C0498C7
:10245000805D0028F0D148F03008119808B148F0AC
:10246000010806EB0900851C109820B1012804D052
:1024700002280AD105E000BF09E048F00208AD1CBF
:1024800005E048F00408AD1C01E00320CFE700BFE1
:102490008FB33878022821D14FF0000A00BF504690
:1024A0000AF1010A385C7D28F9D1AAF1030A0AF180
:1024B000070002900298A9EB000AE81CA0EB0A01B1
:1024C0002046FFF726FE206808B90420AFE7EA1C83
:1024D000A2EB0A012068FEF761F919E0691D2046A8
:1024E000FFF717FE206808B90420A0E7691D2068DF
:1024F000FEF754F90CE0FFE7691D2046FFF709FEDF
:10250000206808B9042092E7691D2068FEF746F9A3
:102510006168481C6060206800F80180D4E900020E
:1025200081182846FFF7DEFD01900198002804DAA3
:102530002046FFF7C9FD052079E761680198084446
:102540006060C6F307216268501C60602068815497
:102550006268501C606020688654D4E900128818B4
:1025600032460499FDF7F1FF6068304460601098CE
:1025700060B14FEA1B216268501C60602068815482
:102580006268501C6060206800F802B0C7B13878FB
:1025900002280BD1D4E9001288183946029AFEF7B6
:1025A00086F8616802980844606009E0D4E9001286
:1025B00088184A463946FEF77AF8606848446060F1
:1025C000002034E72DE9FF5F8046174699460E9CB0
:1025D0000026B246B3460025B8F1000F03D1012012
:1025E00004B0BDE8F09F0BE057F8250008B90220C1
:1025F000F6E757F82500FDF7F0FF0644681CC5B262
:102600004D45F1DB09EB4900801C00EB060A0AF19D
:1026100005012046FFF77DFD206808B90320DFE7AC
:1026200082216268501C606020688154D4E90002F5
:1026300081185046FFF756FD0FFA80FBBBF1000FE3
:1026400004DA2046FFF740FD0420C9E760685844DB
:1026500060604FEA18216268501C606020688154F5
:102660006268501C6060206800F80280002524E049
:1026700057F82500FDF7B1FF0646C6F3072162684B
:10268000501C6060206881546268501C6060206843
:102690008654D4E90023D01857F825103246FDF7A8
:1026A00054FF6068304460600198C1B26268501C99
:1026B000606020688154681CC5B24D45D8DB00209D
:1026C0008EE7F0B504460D46264601230020106033
:1026D000002114E0775C07F07F07106807FB030018
:1026E0001060705C00F0800008B9481CF0BDDB0190
:1026F000B3F5001F02D36FF00100F7E7491CA942B0
:10270000E8DB4FF0FF30F1E701464878022801D0BE
:1027100001207047887810B18878012801D1C878E5
:10272000F7E7FF20F5E700002DE9FC5F81460D4645
:1027300014461E46DDE90C8B99F8000000F00F0AE4
:10274000002001900AF008000090CAF341008BF8C5
:10275000000001AA042109F10100FFF7B2FF48447B
:10276000471C0198022802D30AF0010010B1FF2093
:10277000BDE8FC9F7878397840EA012020802088E5
:10278000801C0199884201D9FF20F1E754A1B81CAF
:10279000FDF7EDFE08B10F20EAE79BF8000020B13D
:1027A00001283DD0022877D13BE0009808B1FF20F6
:1027B000DEE72188481CFDF739FD2860286808B944
:1027C000FF20D5E72288511C2868FDF7E7FF228803
:1027D000B91C2868FDF76BFF0198801E2188401AFC
:1027E000A8F80000B8F80010481CFDF71FFD306085
:1027F000306820B92868FDF748FDFF20B8E7B8F831
:102800000020511C3068FDF7C9FFB8F80020B4F86B
:1028100000C0BB1C0CEB03013068FDF748FF4FE024
:1028200000BF2088801C0199884201D9FF209FE7C2
:102830002088C01C395C2088801C385C41EA00215B
:102840000E9801800E9808B9FF2091E72188481C56
:10285000FDF7ECFC2860286808B9FF2088E722888B
:10286000511C2868FDF79AFF2288B91C2868FDF7DB
:102870001EFF0198001F2188401AA8F80000B8F830
:102880000010481CFDF7D2FC3060306828B9286879
:10289000FDF7FBFCFF206BE710E0B8F80020511CAF
:1028A0003068FDF77BFFB8F80020B4F800C03B1D8E
:1028B0000CEB03013068FDF7FAFE01E0FF2057E75B
:1028C00000BF2B212846FDF736FE20B923212846DC
:1028D000FDF731FE08B1FF204AE7002048E700007D
:1028E0002463726571000000F8B50446FF27207864
:1028F0000511012D01DB0E2D01DD3846F8BD032D3C
:1029000024D1002000906A460421601CFFF7D9FE04
:102910002044461C0098022803D3207800F00100D0
:1029200008B1FF20EAE77078317840EA0120801C86
:102930000099884201D9FF20E0E706A1B01CFDF70D
:1029400016FE08B10F2700E0032700E02F463846A7
:10295000D4E70000246372657100000000BFFEE749
:102960000FB41FB50A2003904A20029049E04B485B
:1029700003F02FFB4AA39DF80C200C21474803F0DD
:102980001BFD494828210B46CDE900109DF80C207D
:102990001A322C21414803F02FFD444820210B46D8
:1029A000CDE900109DF80C20921D414801883B485C
:1029B00003F022FD3F482021CDE900103C4800886B
:1029C000303081B220239DF80C20921D334803F053
:1029D00013FD39482021CDE90010354800886030CA
:1029E00081B220239DF80C20921D2C4803F004FD99
:1029F0003248027802A903A804F012FF274803F026
:102A000064FD9DF80C009DF808108842AFD14A2063
:102A100003900A20029038E00024204803F0D9FAFD
:102A20002146641C07A850F821309DF80C200C2189
:102A30001A4803F0C1FC9DF80C00C01C80230090D4
:102A40009DF80C20D21C0121144803F028FC0FE053
:102A500007A850F8243004EB44019DF80C00801CBA
:102A600000EB810203210D4803F0A6FC601CC4B2F8
:102A70009DF81800A042EBDC1048027802A903A8D8
:102A800004F0CEFE054803F020FD9DF80C009DF8F3
:102A900008108842C0D11FBC5DF814FB78010020EB
:102AA0004D454E553A00000040880008C08400089B
:102AB0000801002040850008C0850008FC000020B7
:102AC0007047000070B5002100230F22C47804B3C2
:102AD000154C246804F4E064C4F5E064210AC1F1F3
:102AE0000403CA40447804FA03F184781440214373
:102AF00009010E4C0678A155047804F01F05012445
:102B0000AC4005786D11AD0005F1E025C5F8004138
:102B100009E0047804F01F050124AC40044D067858
:102B2000761145F8264070BD0CED00E000E400E0B1
:102B300080E100E002490143024A11607047000051
:102B40000000FA050CED00E010B5FFF723FA0128AC
:102B50000CD10748007808B9012000E000200449A2
:102B6000087008460178034804F06DFB10BD0000B2
:102B7000190100207801002030B58BB000200790AB
:102B8000089009900A90012507A80021029103915D
:102B9000CDE9041000912B0236A2019138A13AA090
:102BA000FFF7E4FA002856D1089A91B20798FEF789
:102BB0008DFEFA20FEF724FD0446002C47D0204667
:102BC000FFF792FE022842D1314803F002FA204674
:102BD000FFF79AFD06282FD2DFE800F0030B121949
:102BE00020272CA30A220321294803F0E5FB002516
:102BF00029E02FA30A220321254803F0DDFB22E070
:102C000032A30A220321224803F0D6FB1BE036A39D
:102C10000A2203211E4803F0CFFB14E039A30A2245
:102C200003211B4803F0C8FB0DE03DA30A2203214A
:102C3000174803F0C1FB06E040A30A220321144811
:102C400003F0BAFB00BF00BF114803F03EFC07A829
:102C5000FFF73AFA0BE00E4803F0BBF93EA30A2255
:102C600003210B4803F0A8FB094803F02EFC28467B
:102C70000BB030BD4C54794F4C725654503100005B
:102C8000313433383433380050657266656374000C
:102C900078010020546970733A436F6E6E656374F7
:102CA000696F6E20737563636573730D0A000000AE
:102CB0005741524E3A436F6E6E656374696F6E2072
:102CC0006661696C7572653A310D0A005741524E62
:102CD0003A436F6E6E656374696F6E206661696CEE
:102CE0007572653A320D0A005741524E3A436F6E83
:102CF0006E656374696F6E206661696C7572653AA2
:102D0000330D0A005741524E3A436F6E6E6563743D
:102D1000696F6E206661696C7572653A340D0A00E0
:102D20005741524E3A436F6E6E656374696F6E2001
:102D30006661696C7572653A350D0A004552523A02
:102D4000436F6E6E656374696F6E206661696C7542
:102D500072653A360D0A00005741524E3A094D51FC
:102D600054545F5061636B6574436F6E6E6563743A
:102D7000204661696C65640D0A00000070B588B07A
:102D800005460C46002004900590069007902046CA
:102D9000FDF723FC064604A80121002200923346D9
:102DA000CDE901210390224629460A20FFF72EFB98
:102DB00038B9059A91B20498FEF788FD04A8FFF788
:102DC00083F908B070BD00002DE9F04F8FB0824646
:102DD00000200B900C900D900E900A900990089096
:102DE0000790002606900027002483465046FFF7F0
:102DF0007BFD0646032E36D1344806A907AA0AAB46
:102E0000CDE90021029008AA09A95046FFF78CFCE1
:102E100007463FBB0A9801F051FF8046B8F1000F0A
:102E20001AD02BA1404601F029FF814699F8145091
:102E30000A2D02D1FFF70EF90DE00B2D02D1FFF79D
:102E400011F908E0142D02D1FFF7E8F803E0152D81
:102E500001D1FFF7EBF800BF404601F0E3FE0BA8FD
:102E6000FFF732F902E04FF0FF3700BF00BFFEF777
:102E7000B9FB781C10B90FB0BDE8F08F7D210A981E
:102E8000FDF759FB0446A4B1781C90B1641C06E020
:102E900014F8012B58460BF1010B03A90A542078B2
:102EA000302802DB20783928F2DD03A8FDF736FB55
:102EB00083460F2E01D0032E05D10998FDF7E5F9C1
:102EC0000A98FDF7E2F900BFD5E7000030010020C5
:102ED000546F6F4C5F53570030B585B004460D46B4
:102EE0000020019002900390049001A82B462246F6
:102EF000002100901420FFF765FB38B9029A91B2C7
:102F00000198FEF7E3FC01A8FFF7DEF805B030BD3D
:102F10000FB41FB50A2003904A20029038E0002425
:102F20004A4803F056F82146641C07A850F821309F
:102F30009DF80C200C21454803F03EFA9DF80C004A
:102F4000C01C802300909DF80C20D21C01213F481A
:102F500003F0A5F90FE007A850F8243004EB440172
:102F60009DF80C00801C00EB81020321374803F020
:102F700023FA601CC4B29DF81800A042EBDC344870
:102F8000027802A903A804F04BFC304803F09DFA34
:102F90009DF80C009DF808108842C0D14A2003908B
:102FA0000A20029049E0294803F013F828480278E3
:102FB00002A903A804F034FC26A39DF80C200C21E0
:102FC000224803F0F9F9254828210B46CDE90010E5
:102FD0009DF80C201A322C211C4803F00DFA2048D1
:102FE00020210B46CDE900109DF80C20921D1D48B4
:102FF0000188164803F000FA1B482021CDE9001093
:1030000018480088303081B220239DF80C20921D92
:103010000E4803F0F1F915482021CDE900101148C0
:103020000088603081B220239DF80C20921D074853
:1030300003F0E2F9054803F048FA9DF80C009DF80A
:1030400008108842AFD11FBC5DF814FB7801002046
:10305000FC0000204D454E553A0000004088000815
:10306000C08400080801002040850008C0850008D1
:103070002DE9FE4306460F46914698460A200290E7
:103080004A2001900024002534E00024374802F053
:10309000A0FF2146641C57F821309DF808200C2120
:1030A000324803F089F99DF80800C01C8023009085
:1030B0009DF80820D21C01212C4803F0F0F80EE006
:1030C00057F8243004EB44019DF80800801C00EB05
:1030D00081020321254803F06FF9601CC4B2B44299
:1030E000EEDB2348027801A902A804F099FB1F48EF
:1030F00003F0EBF99DF808009DF804108842C4D154
:103100004A2002900A20019028E00025174802F08A
:1031100060FF1748027801A902A804F081FB294644
:103120006D1C58F821309DF808200C210F4803F041
:1031300043F90EE058F8253005EB45019DF80800ED
:10314000801C00EB81020321084803F035F9681C5C
:10315000C5B2B542EEDB054803F0B7F99DF80800AB
:103160009DF804108842D0D1BDE8FE83780100208C
:10317000FC0000207047000001460020034A506810
:1031800020F44040084350607047000000100240A7
:1031900029B1064AD2690243044BDA6104E0034ACA
:1031A000D2698243014BDA6170470000001002408F
:1031B00029B1064A92690243044B9A6104E0034A2A
:1031C00092698243014B9A617047000000100240EF
:1031D00030B500210022002400232D4D6D6805F03C
:1031E0000C0121B1042905D0082923D105E0294D7E
:1031F000056022E0274D05601FE0254D6D6805F450
:103200007012234D6D6805F48034022505EB92425F
:103210001CB9214D554305600BE01D4D6D6805F44B
:1032200000351DB11C4D5543056002E0194D554355
:10323000056002E0174D056000BF00BF144D6D68CA
:1032400005F0F0010909154D6B5C0568DD4045602E
:103250000F4D6D6805F4E061090A104D6B5C45681F
:10326000DD4085600A4D6D6805F46051C90A0B4D5B
:103270006B5C4568DD40C560054D6D6805F44041F7
:10328000890B074D6B5CC568B5FBF3F5056130BD77
:103290000010024000127A0000093D0000000020EA
:1032A0001000002070B586B09448007804287CD1C6
:1032B000002400250026142291496846FDF73CFAB7
:1032C0008F4810380FC8FFF74BFB06E1FDF73CFEB7
:1032D0008A4908708B4802F07CFE894810380A221F
:1032E0000C214368874803F067F80D2080230246CD
:1032F00001210090834802F0D2FF00F087F90546D3
:1033000000F018F906467E48103818220321836819
:103310007C4803F051F87A48103824220321C3680E
:10332000784803F049F876481038302203210369C1
:10333000744803F041F801227349744804F070FAAC
:1033400001227349734804F06BFA022272497348F0
:1033500004F066FA01227249724804F061FA714879
:10336000007800906D4803786A48027867480178D1
:10337000644802F055FE634803F0A7F85F48007800
:10338000042813D168480078401C674908705C48DD
:1033900010380078801E0978884238DC5848103888
:1033A0000078801E6049087031E099E05348007849
:1033B00003280BD15C480078401E5B490870084622
:1033C0000078002823DC0020087020E04B480078BB
:1033D00002281CD14B4802F0FCFD00205249087025
:1033E00001204A4908700E204A49087054204B4970
:1033F00008700D204B490870142241496846FDF7BA
:103400009BF93F4810380FC8FFF782FD66E0464839
:10341000007820B1012822D002285DD13FE00120B0
:103420003949087040480078001B00EB40000E212D
:1034300001EB800036490870314910398868FDF782
:10344000CCF8401C284400EB40004006000E3249F6
:1034500008700D203249087000F0A8FE3CE0012001
:103460002949087030480078001B00EB40000E210D
:1034700001EB80002649087021491039C868FDF722
:10348000ACF8401C304400EB40004006000E2249DE
:1034900008700D202249087000F014F91CE001208A
:1034A0001949087020480078001B00EB40000E21ED
:1034B00001EB800016490870114910390869FDF7C1
:1034C0008CF8401C00EB40004006000E12490870CA
:1034D0000D201349087000BF00BFF7E600BF00BF12
:1034E00000200649087000F013FE4FF6D0700F4917
:1034F000088002200E49087006B070BD0F01002040
:10350000A0000020780100201401002010010020FC
:1035100015010020110100201601002012010020D9
:1035200017010020130100201801002008010020CD
:103530000E0100201CB526480088052804D125A1CD
:103540006846FDF726F82CE0214800880A2804D1B7
:1035500022A16846FDF71DF823E01D4800881428C5
:1035600004D120A16846FDF714F81AE01848008835
:103570001E2804D11DA16846FDF70BF811E0144880
:1035800000883C2804D11BA16846FDF702F808E03A
:103590000F480088B0F5967F03D118A16846FCF764
:1035A000F8FF1849C868FDF718F8401C00EB400008
:1035B0004FF6FF7101EA40046B462422214612486F
:1035C00002F0FAFE6846FDF708F8C0B21CBD000024
:1035D00000010020352053454300000031302053C6
:1035E0004543000032302053454300003330205320
:1035F0004543000031204D494E00000035204D4923
:103600004E00000090000020780100201CB52148E9
:103610000078012804D120A16846FCF7BAFF22E017
:103620001C480078032804D11CA16846FCF7B1FFB0
:1036300019E018480078042804D119A16846FCF75D
:10364000A8FF10E013480078062804D116A16846A8
:10365000FCF79FFF07E00F480078082803D114A16A
:103660006846FCF796FF14498868FCF7B6FF401CD3
:1036700000EB40004FF6FF7101EA40046B46182250
:1036800021460E4802F098FE6846FCF7A6FFC0B23D
:103690001CBD0000FC0000204C4F57004D49440069
:1036A00048494748000000004641535400000000CC
:1036B000534F5F4641535400900000207801002092
:1036C00070470000F8B5C3480078012876D1002083
:1036D000C14908700024C1490A78C1490878BF4B24
:1036E0001B1D091DFFF7C4FC65E1FDF72DFCB94961
:1036F0000870BC4802F06DFCB8480A220C214368EF
:10370000B84802F059FE0D208023024601210090A6
:10371000B44802F0C4FD01260FE0A119AF48001D16
:1037200050F8213006EB4600800000F10C02032126
:10373000AC4802F041FE701CC6B2052EEDDB012242
:10374000A949AA4804F06CF80122A949A94804F043
:1037500067F80422A849A94804F062F80122A849A0
:10376000A84804F05DF8A74800780090A3480378C3
:10377000A04802789D4801789A4802F051FC994887
:1037800002F0A3FE9348007804281BD192480078E9
:10379000401C9149087091480078801E0978884241
:1037A00004DC8E480078801E8B4908708A480078B7
:1037B000C01E001B002802DD601C01E0FEE0204668
:1037C000C4B23FE083480078032815D182480078CE
:1037D000401E8149087008460078002801DC00205E
:1037E00008707D480078401C001B002801DD204641
:1037F00000E0601EC4B225E07648007802281BD1A4
:10380000784802F0E6FB00207349087001207749F0
:1038100008700E20774908705420784908700D20F0
:10382000784908706E490A786C4908786C4B1B1D02
:10383000091DFFF71DFCBFE066480078012801D193
:103840007148058064480078062820D2DFE800F03F
:1038500003203D5A77940120634908705E48007840
:10386000001B00EB40000E2101EB80006049087056
:103870005A498868FCF7B1FE401C00EB4000400646
:10388000000E5D4908700D205D490870052591E026
:1038900001205549087050480078001B00EB40009B
:1038A0000E2101EB8000524908704C49C868FCF7B2
:1038B00094FE401C00EB40004006000E4E4908708C
:1038C0000D204F4908700A2574E001204649087010
:1038D00041480078001B00EB40000E2101EB800006
:1038E000434908703D490869FCF777FE401C00EB2E
:1038F00040004006000E404908700D204049087005
:10390000142557E001203849087033480078001B1F
:1039100000EB40000E2101EB8000354908702F4973
:103920004869FCF75AFE401C00EB40004006000EC0
:10393000314908700D20324908701E253AE00120F7
:103940002949087024480078001B00EB40000E2134
:1039500001EB80002649087020498869FCF73DFE8C
:10396000401C00EB40004006000E234908700D206B
:10397000234908703C251DE001201B4908701648AA
:103980000078001B00EB40000E2101EB800018497D
:1039900008701249C869FCF720FE401C00EB40008B
:1039A0004006000E144908700D20154908704FF4A8
:1039B000967500BF00BF98E600BF00BF0020054914
:1039C00008704FF6D0701149088002201049087025
:1039D000F8BD00000F01002018010020D8000020D1
:1039E0009000002078010020140100201001002028
:1039F00015010020110100201601002012010020F5
:103A00001701002013010020000100200801002000
:103A10000E01002038B59A480078012876D100249C
:103A200098490A7898490878964B1B1D091DFFF79D
:103A30001FFB17E1FDF788FA91490870934802F0DF
:103A4000C8FA90480A220C214368904802F0B4FC5E
:103A50000D2080230246012100908C4802F01FFCBB
:103A60008848182203218368884802F0A5FC85480D
:103A700024220321C368854802F09EFC814830223D
:103A800003210369814802F097FC7E483C22032110
:103A900043697E4802F090FC01227D497D4803F095
:103AA000BFFE01227C497D4803F0BAFE02227C4918
:103AB0007C4803F0B5FE01227B497C4803F0B0FE50
:103AC0007A48007800907748037874480278714803
:103AD00001786E4802F0A4FA6C4802F0F6FC6848DF
:103AE0000078042813D172480078401C704908708F
:103AF00064480078801E0978884204DC61480078B8
:103B0000801E6B49087001F0AFF930E0ADE05C4811
:103B1000007803280BD166480078401E644908707D
:103B200008460078002822DC002008701FE0544876
:103B3000007802281BD1554802F04BFA00205C495E
:103B400008700120534908700E2054490870542011
:103B5000544908700D20554908704B490A78494965
:103B60000878494B1B1D091DFFF782FA7BE050487E
:103B7000007830B1012820D002283AD0032870D133
:103B800053E001204249087049480078001B00EBCF
:103B900040000E2101EB80003F49087039498868D8
:103BA000FCF71BFD401C00EB40004006000E3C49AA
:103BB00008700D203C49087053E00120344908701A
:103BC0003B480078001B00EB40000E2101EB800019
:103BD000314908702B49C868FCF7FFFC401C00EB1A
:103BE00040004006000E2E4908700D202E49087036
:103BF00037E00120264908702D480078001B00EBB3
:103C000040000E2101EB8000234908701D4908691E
:103C1000FCF7E3FC401C00EB40004006000E20498E
:103C200008700D20204908701BE001201849087019
:103C30001F480078001B00EB40000E2101EB8000C4
:103C4000154908700F490869FCF7C7FC401C00EBD8
:103C500040004006000E124908700D2012490870FD
:103C600000BF00BFE6E600BF00BF002004490870A7
:103C700030201049088000200F49087038BD00002E
:103C80000F010020480000202400002078010020BF
:103C90001401002010010020150100201101002056
:103CA000160100201201002017010020130100203E
:103CB00018010020080100200E01002030B585B059
:103CC0003948027839A104A8FCF714FB3848037876
:103CD0000088021237A102A8FCF70CFB38480278D2
:103CE00038A101A8FCF706FB3748027835A16846E1
:103CF000FCF700FB35498868FCF76FFC054604A813
:103D0000FCF76BFC281A401E00EB40004FF6FF71D9
:103D100001EA400404AB182221462D4802F04CFB76
:103D20002A49C868FCF759FC054602A8FCF755FC6F
:103D3000281A401E00EB40004FF6FF7101EA4004D4
:103D400002AB24222146224802F036FB1F490869B3
:103D5000FCF743FC054601A8FCF73FFC281A401C71
:103D600000EB40004FF6FF7101EA400401AB302246
:103D70002146174802F020FB14494869FCF72DFC46
:103D800005466846FCF729FC281A401C00EB400059
:103D90004FF6FF7101EA40046B463C2221460C4875
:103DA00002F00AFB05B030BD02010020253264009C
:103DB000060100202532642E253164200000000019
:103DC0000401002025336400030100206C00002062
:103DD0007801002010B500F001F810BD0CB50020EE
:103DE000019000903348006840F480303149086009
:103DF00000BF3048006800F4003000900198401C7B
:103E00000190009818B90198B0F5A06FF1D1294838
:103E1000006800F4003010B10120009001E00020A3
:103E200000900098012843D12348006840F010001A
:103E3000214908600846006820F003000860084631
:103E4000006840F0020008601A484068194948605C
:103E50000846406848600846406840F48060486012
:103E60000846406820F47C1048600846406840F4EA
:103E7000E81048600846006840F08070086000BFA5
:103E80000C48006800F000700028F9D0094840682C
:103E900020F00300074948600846406840F00200EF
:103EA000486000BF0348406800F00C000828F9D1C2
:103EB0000CBD000000100240002002401CB5FDF7C0
:103EC00043F885490870084600788449087082489C
:103ED000007801285DD18248008810F1300F58DD4C
:103EE00080480078401C7F4908707F480078302166
:103EF00091FBF0F07D49087044E07D4802F069F8DC
:103F000079480178764803F077FC7A4828210B46F7
:103F10002422CDE900102C21754802F06DFA764874
:103F200020210B461022CDE900106D480188704811
:103F300002F062FA71482021CDE90010684800883B
:103F4000303081B220231022694802F055FA6C48C3
:103F50002021CDE9001062480088603081B2202322
:103F60001022634802F048FA66A30A220C21604836
:103F700002F022FA5E4802F0A8FA5C480078401E7F
:103F80005A490870594800780028B6D1524908703B
:103F90005FE05148007802285BD151480088302802
:103FA00057DA50480078401E4E4908704E48007855
:103FB000302191FBF0F04D49087044E04C4802F08C
:103FC00008F849480178464803F020FC4948282170
:103FD0000B462422CDE900102C21454802F00CFAB2
:103FE000454820210B461022CDE900103C480188AD
:103FF0003F4802F001FA41482021CDE9001038483D
:104000000088303081B220231022394802F0F4F9C0
:104010003B482021CDE9001031480088603081B252
:1040200020231022324802F0E7F936A30A220C219D
:104030002F4802F0C1F92E4802F047FA2B480078C9
:10404000401E2A490870294800780028B6D1224924
:1040500008702448007820B1012814D0022838D1F3
:1040600024E028A30A220C21214802F0A5F9274BBD
:104070000A222A211E4802F09FF91D4802F025FA63
:10408000FDF708FD25E01FA30A220C21184802F0C5
:1040900093F91E4B0A330A222A21154802F08CF9A3
:1040A000134802F012FAFDF731F812E015A30A22C4
:1040B0000C210F4802F080F9144B14330A222A21F4
:1040C0000B4802F079F90A4802F0FFF9FFF7EAF825
:1040D00000BF00BF1CBD00000D0100200F0100202B
:1040E000080100200E010020FC0000200C0100202F
:1040F0007801002040880008C0840008408500083E
:10410000C08500084D454E553A000000988B0008C8
:104110001CB501211E4802F002FA00211C4802F0E1
:10412000FBF91C491A4802F0E7F91B4828210B4605
:104130002422CDE900102C21154802F05DF9174822
:1041400020210B461022CDE90010154801881048A7
:1041500002F052F913482021CDE9001010480088E0
:10416000303081B220231022094802F045F90E4870
:104170002021CDE900100A480088603081B2202358
:104180001022034802F038F9014802F09EF91CBDE4
:10419000780100202BB4000840880008C084000883
:1041A0000801002040850008C0850008F8B5B24825
:1041B0000078012873D10024B0490A78B049087802
:1041C000AE4B1B1D091DFEF753FF47E1FCF7BCFE7C
:1041D000A9490870AB4801F0FCFEA8480A220C214E
:1041E0004368A84802F0E8F80D2080230246012128
:1041F0000090A44802F053F801260FE0A1199F484F
:10420000001D50F8213006EB4600800000F10C0242
:1042100003219C4802F0D0F8701CC6B2052EEDDBDD
:1042200001229949994803F0FBFA012298499948DB
:1042300003F0F6FA04229849984803F0F1FA0122B3
:104240009749984803F0ECFA964800780090934814
:104250000378904802788D4801788A4801F0E0FEA2
:10426000884802F032F98448007804281BD18E482F
:104270000078401C8C49087080480078801E0978BE
:10428000884204DC7D480078801E87490870864893
:104290000078C01E001B002802DD601C01E0E0E089
:1042A0002046C4B23FE074480078032815D17E4808
:1042B0000078401E7C49087008460078002801DC20
:1042C0000020087078480078401C001B002801DDA1
:1042D000204600E0601EC4B225E06748007802284E
:1042E0001BD1684801F075FE00206F49087001205D
:1042F000664908700E2067490870542067490870A5
:104300000D20684908705E490A785C4908785C4B62
:104310001B1D091DFEF7ACFEA1E0574800780128DF
:1043200001D16248057060480078052820D2DFE896
:1043300000F003203D5A77000120534908705A4885
:104340000078001B00EB40000E2101EB800050497B
:1043500008704A498868FCF740F9401C00EB4000AF
:104360004006000E4C4908700D204D49087001258B
:1043700073E00120444908704B480078001B00EBB3
:1043800040000E2101EB8000414908703B49C8689C
:10439000FCF723F9401C00EB40004006000E3E49AC
:1043A00008700D203E490870032556E0012036496B
:1043B00008703D480078001B00EB40000E2101EB27
:1043C0008000334908702D490869FCF706F9401C44
:1043D00000EB40004006000E2F4908700D203049C8
:1043E0000870042539E00120274908702E4800781C
:1043F000001B00EB40000E2101EB800024490870F7
:104400001E494869FCF7E9F8401C00EB40004006F3
:10441000000E214908700D202149087006251CE076
:1044200001201949087020480078001B00EB40006B
:104430000E2101EB80001649087010498869FCF7CD
:10444000CCF8401C00EB40004006000E12490870FA
:104450000D2013490870082500BF00BFB6E600BF55
:1044600000BF0020044908704FF6D0701049088042
:10447000022010490870F8BD0F010020B400002090
:10448000900000207801002014010020100100207D
:10449000150100201101002016010020120100204A
:1044A000170100201301002018010020FC0000204B
:1044B000080100200E0100207047000010B51348CD
:1044C000006840F001001149086008464068104942
:1044D00008400E494860084600680E4908400B49EC
:1044E00008600846006820F480200860084640689C
:1044F00020F4FE0048604FF41F008860FFF76AFC5C
:104500004FF000600449086010BD00000010024038
:104510000000FFF8FFFFF6FE08ED00E000B585B0F3
:104520000121880700F0C0F801286CD137480088C5
:10453000401C364908800846008835490988884269
:1045400045DB34493448FCF7D2FF0220FCF798FCE5
:10455000324908700320FCF793FC31490870FDF7DD
:104560006DFD30490870FDF785FD2F4908702C4816
:104570000078B42803DA29480078B42803DB012046
:104580002A49087002E000202849087000201F49CD
:1045900008802548007823490978214A12781F4B62
:1045A0001B78CDE90132CDE903101A48007800905C
:1045B000184800880312184802781DA12C48FBF700
:1045C00099FE2B492BA0FEF7D9FBFDF70BF82B48E2
:1045D000007858B10320FDF713F829490860084610
:1045E000006818B108460068FEF7EEFB0F48007837
:1045F000012802D1FCF772FD01E0FCF765FD012105
:10460000880700F042F805B000BD00001800002047
:10461000000100200601002002010020040100200A
:1046200003010020FE000020FF000020FD0000200C
:104630007B2248756D223A25642C2254656D7022C8
:104640003A25642E25642C22536D6F67223A256427
:104650002C22466C616D65223A25642C224C6564DF
:10466000223A25642C2246616E223A25647D0000A0
:1046700034010020536572736F7200002000002027
:104680001C000020CA4302827047CA43028270475E
:1046900021B1028842F00102028004E002884FF654
:1046A000FE731A400280704730B502460020002396
:1046B0000024158A05EA0103958905EA010413B16E
:1046C0000CB1012000E0002030BD1AB183890B43FA
:1046D000838102E083898B438381704701894FF690
:1046E000F872114001817047002202881D4B9842E8
:1046F0000ED01D4B98420BD0B0F1804F08D01B4B11
:10470000984205D01A4B984202D01A4B984204D1D5
:104710004FF68F731A404B881A43174B984207D0B5
:10472000164B984204D04FF6FF431A40CB881A43E9
:1047300002808B8883850B8803850A4B98420BD0B7
:10474000094B984208D00E4B984205D00D4B984229
:1047500002D00D4B984201D10B7A0386012383824C
:1047600070470000002C014000340140000400406C
:1047700000080040000C0040001000400014004001
:104780000040014000440140004801401FB50121A4
:104790000846FEF7FDFC4FF08040FFF79FFF00202A
:1047A000ADF80A00ADF8060042F20F70ADF808004F
:1047B00041F61F40ADF8040000208DF80C0001A95F
:1047C0004FF08040FFF790FF01218807FFF75AFF65
:1047D000012211469007FFF778FF4FF4A060FEF723
:1047E000A9F91C208DF8000001208DF8030002209B
:1047F0008DF8010001208DF802006846FEF762F98D
:1048000001218807FFF744FF1FBD000010B540F2EB
:1048100025510E4800F042F8B0B10D480088FF283D
:1048200002D900200A4908800848001D0088C1B24A
:10483000074802880088401C054B188005488154B1
:104840002021024800F008F810BD000000380140A7
:104850002C0100200C06002001F40072B2F5007F4C
:1048600000D100BFCA430280704721B1828942F45F
:104870000052828104E082894DF6FF731A408281E2
:10488000704702460020B1F5007F00D100BF1388B9
:104890000B400BB1012000E00020704770B50246CC
:1048A000002400230025002040F66A16B14200D102
:1048B00000BFC1F3421501F01F03012606FA03F3FE
:1048C000012D02D19689334006E0022D02D1168ACD
:1048D000334001E0968A33400C12012606FA04F4B4
:1048E0001688344013B10CB1012000E0002070BDE7
:1048F000F0B50346002400260025002040F66A1784
:10490000B94200D100BF1846C1F3421401F01F069E
:10491000012707FA06F5012C01D10C3004E0022C26
:1049200001D1103000E014301AB107682F4307603E
:1049300002E00768AF430760F0BD00002DE9F047D3
:1049400086B005460E460024A24600BFA1460027B9
:10495000B08900B100BF2F462C8A4CF6FF7004408E
:10496000F08804432C82AC894EF6F3100440B088E2
:1049700031890843718908430443AC81AC8A4FF6FE
:10498000FF400440B0890443AC8201A8FEF720FC3C
:104990001F48874202D1DDF810A001E0DDF80CA02D
:1049A000A88900F4004040B10AEBCA0000EB0A10ED
:1049B00031684900B0FBF1F807E00AEBCA0000EBF0
:1049C0000A1031688900B0FBF1F86420B8FBF0F000
:1049D00004012009642101FB1089A88900F400402A
:1049E00040B1322000EBC900B0FBF1F000F007004D
:1049F000044308E0322000EB09106421B0FBF1F021
:104A000000F00F0004432C8106B0BDE8F0870000E1
:104A100000380140C1F308028280704700BFFEE702
:104A200010B586B0044601210420FEF7C1FB012128
:104A30008803FEF7BDFB18208DF817004FF40070B7
:104A4000ADF8140003208DF8160005A91E48FCF7E8
:104A50007BFF04208DF817000002ADF8140003203E
:104A60008DF8160005A91848FCF76EFF0194002088
:104A7000ADF810000C20ADF80E000020ADF80C00D1
:104A8000ADF80A00ADF8080001A91048FFF756FF7D
:104A900001210E48FFF7E9FE012240F225510B48A3
:104AA000FFF726FF25208DF8000001208DF8030078
:104AB00000208DF8010002208DF802006846FEF704
:104AC00001F806B010BD00000008014000380140A8
:104AD0002DE9F04107460C46154600260DE014F876
:104AE000011B3846FFF796FF00BF40213846FFF70D
:104AF000C8FE0028F9D0701C86B2AE42EFDBBDE8DC
:104B0000F081490050EAC12018BF04204A0D18BFA7
:104B100040F0010040F2FF72B2EB515F08BF40F07D
:104B20000200012808BF052070472DE9F0414F1E03
:104B300000EBC7010446D1E9000115461E4637F0D7
:104B400006020DD02A46334603F032F97F1E04EBED
:104B5000C703D3E9002302F095FE37F00602F1D136
:104B6000022F25D0042F13D0062F18BFBDE8F081E7
:104B70002A46334603F01CF9D4E90A2302F082FEE8
:104B80002A46334603F014F9D4E9082302F07AFEEA
:104B90002A46334603F00CF9D4E9062302F072FEEC
:104BA0002A46334603F004F9D4E9042302F06AFEEE
:104BB0002A46334603F0FCF8D4E9022302F062FEF1
:104BC0002A46334603F0F4F8D4E90023BDE8F04167
:104BD00002F058BE002213461046014902F00EBFF3
:104BE0000000F03F02F04EBE002213461046114670
:104BF00002F004BF40F2013200204FF0E04103F028
:104C000019BC0000024A0020110703F013BC000089
:104C100001FDFFFF30380A2801D201207047002033
:104C20007047000070B5044622E02568A08900F4B2
:104C3000807020B9A06810B1A068FFF7F3FFA089C9
:104C400000F4807028B9206918B10B4920690968FF
:104C50008847A08900F4007028B9206A18B1064975
:104C6000206A0968884720460349096888472C4616
:104C7000002CDAD170BD00002801002070B5054677
:104C80000E46AC6800E024682CB13146206A00F082
:104C90004FF80028F7D1204670BD000010B528203D
:104CA00005490968884704461CB128212046FBF7BE
:104CB00097FD204610BD00002401002010B50446D9
:104CC00000221146204600F001F810BD2DE9F04702
:104CD00080460D4616460024FFF7E0FF07460020F9
:104CE000124908600FB9BDE8F087404601F042F96B
:104CF00081464946384600F0F3FB044624B938465D
:104D0000FFF790FF0020EEE766B1204601F032F990
:104D10000446207830B13846FFF784FF034804602A
:104D20000020E0E705B12C603846DCE720010020D8
:104D300070B504460D462CB9AC4201D0012070BDBF
:104D40000020FCE70DB90120F9E705E0207808B95B
:104D50000020F4E7641C6D1C2078FBF7BDFA0646C2
:104D60002878FBF7B9FA8642F0D02078FBF7B4FA3E
:104D700006462878FBF7B0FA301AE0E710B50121B3
:104D80002A4801F0CCFB0021284801F0C5FB284946
:104D9000264801F0B1FB27A314220021234801F08B
:104DA0000BFB0121214801F0B7FB23491F4801F00B
:104DB000A3FB22A3082215211C4801F0FDFA0021C3
:104DC0001A4801F0A9FB1A49184801F095FB1CA3E9
:104DD0001E223321154801F0EFFA1AA31E224321A7
:104DE000124801F0E9FA2F23232202210F4801F093
:104DF0008DF92F23242203210C4801F087F90C237D
:104E000020222D21094801F0E9FA0C2321222E212C
:104E1000064801F0E3FA0C49044801F06DFB0BA3CE
:104E200036220121014801F0C7FA10BD78010020A7
:104E3000B6910008550000008F8E00083800000071
:104E400067000000B2000000BC8B0008676974684E
:104E500075622E636F6D2F6F6C696B726175732F46
:104E60007538673200000000012001490870704762
:104E700020000020FCF7CAF803E0FDF765FEFFF70D
:104E80001DF8FAE72DE9F04705460C4620785B2827
:104E900004D0264804600020BDE8F0870520E860C3
:104EA000601C01F067F8044620785D2801D1601C81
:104EB000F2E7FFF7F3FE0646A860A86808B90020ED
:104EC000EAE7204601F056F880464146304600F0B9
:104ED00007FB074601F04EF804460CB90020DBE75B
:104EE00017E0FFF7DBFE071E00D1D5E737607E60D5
:104EF0003E46601C01F03EF881464946304600F0CF
:104F0000EFFA804601F036F804460CB90020C3E7FA
:104F100000BF20782C28E4D020785D2801D1601CC7
:104F2000BAE7024804600020B6E700002001002034
:104F3000014600220878302806DB0878392803DC8F
:104F400008783038024415E00878412806DB0878F4
:104F5000462803DC0878373802440BE008786128DB
:104F600006DB0878662803DC08785738024401E03D
:104F7000002070471201491C0878302806DB0878A9
:104F8000392803DC08783038024415E008784128D5
:104F900006DB0878462803DC0878373802440BE043
:104FA0000878612806DB0878662803DC087857381B
:104FB000024401E00020DCE71201491C0878302897
:104FC00006DB0878392803DC08783038024415E01D
:104FD0000878412806DB0878462803DC087837384B
:104FE00002440BE00878612806DB0878662803DCB9
:104FF00008785738024401E00020BAE71201491C42
:105000000878302806DB0878392803DC087830383F
:10501000024415E00878412806DB0878462803DCBE
:105020000878373802440BE00878612806DB0878F6
:10503000662803DC08785738024401E0002098E72E
:10504000104696E72DE9F04F8BB083468A46002044
:10505000044605460026674F002188468946099088
:10506000012008909AF800002D2802D1624F0AF121
:10507000010A9AF80000302801D10AF1010A9AF8D1
:105080000000312822DB9AF8000039281EDC00BF1E
:105090001AF8011BA1F1300002F037FE0022574B35
:1050A000CDE906012046294602F082FECDE9040141
:1050B000DDE9062302F0E6FB04460D469AF80000FF
:1050C000302803DB9AF800003928E1DD9AF8000067
:1050D0002E2830D19AF8010030282CDB9AF80100F4
:1050E000392828DC0AF1010A00BF1AF8011BA1F1D6
:1050F000300002F00AFE0022404BCDE906012046B6
:10510000294602F055FECDE90401DDE9062302F04F
:10511000B9FB04460D460022364B4046494603F093
:105120006DF8804689469AF80000302803DB9AF82B
:1051300000003928D9DD9AF80000652803D09AF8D4
:105140000000452823D10AF1010A9AF800002B2813
:1051500002D10AF1010A08E09AF800002D2804D1D2
:105160004FF0FF3008900AF1010A08E01AF8010B2D
:105170003038099901EB810100EB410009909AF860
:105180000000302803DB9AF800003928EEDDDDE965
:10519000082101FB02F002F0B8FD42464B46CDE982
:1051A000000102F06FFB02460B46CDE90201002030
:1051B000124900F0F3F922462B46CDE906013046AC
:1051C000394602F0F5FDCDE90401DDE9062302F0E0
:1051D000EFFD04460D46CBE906452046294602F080
:1051E00065FDCBF814000320CBF80C0050460BB043
:1051F000BDE8F08F0000F03F0000F0BF0000244049
:105200002DE9F04706460C4620787B2804D040481C
:1052100004600020BDE8F0870620F060601C00F00C
:10522000A9FE044620787D2801D1601CF2E7FFF733
:1052300035FD0546B060B06808B90020EAE72046B1
:1052400000F098FE80464146284600F063F8074685
:1052500000F090FE04460CB90020DBE728692862C4
:105260000020286120783A2803D0294804600020D3
:10527000D0E7601C00F07EFE80464146284600F0E4
:105280002FF9074600F076FE04460CB90020C1E76E
:1052900031E0FFF703FD071E00D1BBE72F607D6003
:1052A0003D46601C00F066FE81464946284600F0F7
:1052B00031F8804600F05EFE04460CB90020A9E7F4
:1052C000286928620020286120783A2803D01048F5
:1052D000046000209EE7601C00F04CFE81464946B9
:1052E000284600F0FDF8804600F044FE04460CB964
:1052F00000208FE700BF20782C28CAD020787D2896
:1053000001D1601C86E702480460002082E70000AB
:10531000200100202DE9F05F8346884608F1010452
:10532000002798F80000222805D06A48C0F80080BD
:105330000020BDE8F09F04E014F8011B5C2900D1B7
:10534000641C2078222804D0207810B1781C071E15
:10535000F2D1781C6049096888478146B9F1000F8D
:1053600001D10020E5E708F101044D469EE02078D8
:105370005C2804D014F8010B05F8010B96E0641CBE
:105380002078722818D006DC622809D066280BD055
:105390006E287DD10CE0742812D07528F9D113E065
:1053A000082005F8010B7FE00C2005F8010B7BE0DD
:1053B0000A2005F8010B77E00D2005F8010B73E0DA
:1053C000092005F8010B6FE0601CFFF7B1FD0646F0
:1053D000241DB6F55C4F02D3B6F5604F00D306B975
:1053E00062E0B6F5584F1CD3B6F55C4F19D2607821
:1053F0005C2802D1A078752800D055E0E01CFFF7AA
:1054000097FD8246A41DBAF55C4F02D3BAF5604FF2
:1054100000D349E0C6F30901504661F39F2000F52F
:1054200080360427802E01D2012708E0B6F5006FF0
:1054300001D2022703E0B6F5803F00D203273D44A6
:10544000012F20D0022F15D0032F0AD0042F24D1F2
:1054500006F0BF0040F08001681E05460170B609E5
:1054600000BF06F0BF0040F08001681E05460170D5
:10547000B60900BF06F0BF0040F08001681E054677
:105480000170B60900BF1548C05D3043C1B200E0ED
:1054900006E0681E0546017000BF00BF3D4403E002
:1054A000207805F8010B00BF00BF641C207822287B
:1054B00003D0207800287FF45AAF0020287020788D
:1054C000222800D1641CCBF810900420CBF80C00EB
:1054D00020462EE7200100202401002048C00008BB
:1054E00070B505460C460CB9002070BD042224A1FD
:1054F0002046FBF791F818B90220E860201DF4E778
:10550000052221A12046FBF787F818B90020E860A2
:10551000601DEAE704221EA12046FBF77DF820B9B2
:105520000120E8606861201DDFE72078222804D18F
:1055300021462846FFF7EEFED7E720782D2805D034
:105540002078302807DB2078392804DC21462846DB
:10555000FFF778FDC9E720785B2804D1214628466B
:10556000FFF790FCC1E720787B2804D1214628462C
:10557000FFF746FEB9E7084804600020B5E70000E1
:105580006E756C6C0000000066616C736500000055
:105590007472756500000000200100202DE9F04DB7
:1055A0001D460C4698B0174621F0004123F00043F9
:1055B000002814BF4FF0010C4FF0000C0CEB440C12
:1055C000FE4A0CEB02064FEA620C66452BD33E0006
:1055D00018BF012606EB45061644F94A964222D327
:1055E000F84A53EA070C02D0944205D148B918B0E2
:1055F00000201146BDE8F08D002808BF4FF0000CD8
:1056000001D04FF0010C0CEB440212F5001F0AD838
:10561000002F14BF4FF0010C4FF0000C0CEB4502B3
:1056200012F5001F07D918B03A462B462146BDE8AF
:10563000F04DFFF7D7BA0022DFF88CA3002CB8BFDB
:10564000534526DADFF884C36345A8BF022220DA77
:10565000DFF870C39C451CDCDFF874C30CEB235CE3
:10566000BCF1140F08DDCCF1340627FA06FC0CFA65
:1056700006F6BE420DD108E05FB9CCF1140623FA5C
:1056800006FC0CFA06F69E4203D10CF00102C2F1B0
:10569000020251EA000C19D1002D17DA002C18BFB4
:1056A000022A01D0012A07D00220FBF726F918B000
:1056B000BDE8F04DFFF78EBA0220FBF71EF9FFF7A9
:1056C00089FA18B081F00041BDE8F08DB7F1000C07
:1056D0006CD1534525D104F1804212F5801201BFEF
:1056E00000280020B74918B008BFBDE8F08DB548C4
:1056F000884207DC002DA1BF6046294618B0BDE8EE
:10570000F08D07E0281E05DA80F0004118B06046F1
:10571000BDE8F08DAF497944D1E9000118B0BDE88A
:10572000F08DDFF8A0C2634525D1002D1FDA19B135
:10573000514512D1D8B909E0002840F0EC82A24AC4
:10574000214618B062F31E01BDE8F08D002021460D
:1057500018B060F31E01BDE8F08D08DA18B02346DA
:10576000BDE8F04D02460020614602F047B918B08E
:105770002146BDE8F08D514518DAB5F1804F0DD0C6
:10578000A5F1005CBCF1FF5C10D1B4F1000C0DDBA5
:1057900018B06146BDE8F04D00F0F5BB234618B0E7
:1057A0000246BDE8F04D194602F002BB060024F0A7
:1057B000004C3BD1D9B1514533D1002C06DD002D31
:1057C000A1BF0020514618B0BDE8F08D002C01DDCE
:1057D000002D1BDB002C13DA002D11DB012A4FF00A
:1057E000000014BF78497C4918B0BDE8F08D022A4A
:1057F00018BF002C0AD0012A08D1002C06DA0AE0D2
:10580000002CB8BF002D11DA012A04D0002018B0F6
:105810000146BDE8F08D18B000204FF00041BDE812
:10582000F08DA1F14050B0F17F601AD0012000EB63
:10583000E47050EA020421D0624C521E4FF0000B7B
:10584000104304BF4FF0000B644C654883427CDD7D
:10585000644A654893421FDD884217DB002D25DB33
:1058600037E0002C00DA4AB1022A0CBF01204FF0C9
:10587000FF3018B0BDE8F04D02F047BA0120FBF749
:105880003CF818B0BDE8F04DFFF7AEB94D4A8A427A
:1058900002DC002D0ADC1CE0814202DA002D18DA5D
:1058A00004E0484B994220DD002D12DD0220FBF779
:1058B00024F8FFF79FF905460E4600225346584646
:1058C000214602F075FA18B066F31E012846BDE8BD
:1058D000F08D0220FBF711F8FFF794F90A462146F4
:1058E00018B062F31E01BDE8F08D0022304661461B
:1058F00002F084FC80460E466FF0010202F09AFD31
:105900004FF05532394B02F087FB4246334602F0E6
:105910004FFA0022364B02F07FFB82464246334666
:1059200004911046194602F043FA5246049B02F0D5
:105930003FFA8A4600904FF0C0422E4B4046314617
:1059400002F036FA2C4A2B4B00E027E0CDE90601A5
:105950005146009802F02CFA82460191274A284BC2
:105960004046314602F024FA5246019B02F046FCC2
:1059700082460B4602460591DDE9060101F082FFF1
:10598000DDE9062300268846304602F037FC524601
:10599000059B02F041FB024600F07EB90020B1F504
:1059A000801F07DA35223046614602F043FD064685
:1059B0006FF0340000EB215024E00000FFFF1F00D7
:1059C000FFFF0F000000F03F0000F07F00004043A9
:1059D00001FCFFFFCE6900000000F0FF0000F0BFF7
:1059E0000000E0410000F043FFFFEF3F5555D53F79
:1059F0000000E03F4715F73FFE822B6544DF5DF86E
:105A00000BAE543EA0F2FF300190C1F3130040F002
:105A10007F6141F040510291FE498842D8BF002089
:105A200004DDFD498142C8BF012001DD0D9008E081
:105A300000200D900198401C01900298A0F5801064
:105A400002900299F54878440B910D9900EBC10042
:105A5000D0E900230F9330460A920B9902F0CEFB57
:105A6000CDE90601DDE90A2130460F9B01F00AFF6E
:105A700002460B460020EA4901F0C0FF05910246AC
:105A80000B460090DDE9060102F092F91490E5481A
:105A90008A464FF0000878440299006812904FF04F
:105AA000005040EA61010D980F9B01EB804000F52A
:105AB000002109910A9A129802F0A0FB32460B9B32
:105AC00002F0AAFA4246534602F072F906460291E3
:105AD00040465146099B129A02F06AF9DDE9062315
